:1000000012C02CC02BC02AC029C028C027C026C0BF
:1000100025C024C023C022C021C020C01FC01EC0D4
:100020001DC01CC01BC011241FBECFE5D4E0DEBF25
:10003000CDBF10E0A0E6B0E0EAE5F1E002C0059037
:100040000D92A236B107D9F720E0A2E6B0E001C0D8
:100050001D92A336B207E1F705D07DC0D1CFC0987D
:10006000C09A08958FE287BB14BA83E081BB97E002
:1000700098BB82BB8DB180658DB980B382FD24C0F1
:1000800084FF03C08091620002C08091600094B33D
:100090009F6394BB91B3906C91BB95B3282F2F7342
:1000A000922B95BB92B3807C892B82BBD8DF829B3D
:1000B000FECF15BA82B38F7382BB84B3807C84BBBE
:1000C00081B38F7381BBD9CF83FDD7CF93B384FF27
:1000D00036C080B39F73807C892B982F9370C29A0F
:1000E00022B3236022BB913011F4C2980CC092302D
:1000F00011F4909808C0933011F4919804C09111B4
:1001000002C0C19A01C0C19882FF02C090E701C03D
:1001100090E583FD986084FD946085FD916086FD87
:1001200092609DB990916200982797FF05C087FF64
:1001300002C0709A01C07098809362000AC080B3B8
:100140009F73807C892B8FB9779BFECF8FB1809373
:0A015000600085DF92CFF894FFCF26
:02015A00FF00A4
:00000001FF
